{
  "contractName": "CrowdFunding",
  "abi": [
    {
      "constant": true,
      "inputs": [],
      "name": "name",
      "outputs": [
        {
          "name": "",
          "type": "string"
        }
      ],
      "payable": false,
      "stateMutability": "view",
      "type": "function"
    },
    {
      "constant": true,
      "inputs": [],
      "name": "currentState",
      "outputs": [
        {
          "name": "",
          "type": "uint8"
        }
      ],
      "payable": false,
      "stateMutability": "view",
      "type": "function"
    },
    {
      "constant": true,
      "inputs": [],
      "name": "beneficiary",
      "outputs": [
        {
          "name": "",
          "type": "address"
        }
      ],
      "payable": false,
      "stateMutability": "view",
      "type": "function"
    },
    {
      "constant": true,
      "inputs": [
        {
          "name": "",
          "type": "address"
        }
      ],
      "name": "amounts",
      "outputs": [
        {
          "name": "",
          "type": "uint256"
        }
      ],
      "payable": false,
      "stateMutability": "view",
      "type": "function"
    },
    {
      "constant": true,
      "inputs": [],
      "name": "fundingDeadline",
      "outputs": [
        {
          "name": "",
          "type": "uint256"
        }
      ],
      "payable": false,
      "stateMutability": "view",
      "type": "function"
    },
    {
      "constant": true,
      "inputs": [],
      "name": "succeeded",
      "outputs": [
        {
          "name": "",
          "type": "bool"
        }
      ],
      "payable": false,
      "stateMutability": "view",
      "type": "function"
    },
    {
      "constant": true,
      "inputs": [],
      "name": "targetAmount",
      "outputs": [
        {
          "name": "",
          "type": "uint256"
        }
      ],
      "payable": false,
      "stateMutability": "view",
      "type": "function"
    },
    {
      "constant": true,
      "inputs": [],
      "name": "totalCollected",
      "outputs": [
        {
          "name": "",
          "type": "uint256"
        }
      ],
      "payable": false,
      "stateMutability": "view",
      "type": "function"
    },
    {
      "inputs": [
        {
          "name": "contractName",
          "type": "string"
        },
        {
          "name": "targetAmountEth",
          "type": "uint256"
        },
        {
          "name": "durationInMins",
          "type": "uint256"
        },
        {
          "name": "beneficiaryAddress",
          "type": "address"
        }
      ],
      "payable": false,
      "stateMutability": "nonpayable",
      "type": "constructor"
    },
    {
      "anonymous": false,
      "inputs": [
        {
          "indexed": false,
          "name": "addr",
          "type": "address"
        },
        {
          "indexed": false,
          "name": "totalCollected",
          "type": "uint256"
        },
        {
          "indexed": false,
          "name": "succeeded",
          "type": "bool"
        }
      ],
      "name": "CampaignFinished",
      "type": "event"
    },
    {
      "constant": false,
      "inputs": [],
      "name": "contribute",
      "outputs": [],
      "payable": true,
      "stateMutability": "payable",
      "type": "function"
    },
    {
      "constant": false,
      "inputs": [],
      "name": "finishCrowdFunding",
      "outputs": [],
      "payable": false,
      "stateMutability": "nonpayable",
      "type": "function"
    },
    {
      "constant": false,
      "inputs": [],
      "name": "collect",
      "outputs": [],
      "payable": false,
      "stateMutability": "nonpayable",
      "type": "function"
    },
    {
      "constant": false,
      "inputs": [],
      "name": "withdraw",
      "outputs": [],
      "payable": false,
      "stateMutability": "nonpayable",
      "type": "function"
    }
  ],
  "bytecode": "0x60806040523480156200001157600080fd5b5060405162000eab38038062000eab833981018060405260808110156200003757600080fd5b8101908080516401000000008111156200005057600080fd5b828101905060208101848111156200006757600080fd5b81518560018202830111640100000000821117156200008557600080fd5b50509291906020018051906020019092919080519060200190929190805190602001909291905050508360009080519060200190620000c692919062000251565b5073__Utils_________________________________63d8916bb9846040518263ffffffff1660e01b81526004018082815260200191505060206040518083038186803b1580156200011757600080fd5b505af41580156200012c573d6000803e3d6000fd5b505050506040513d60208110156200014357600080fd5b810190808051906020019092919050505060018190555073__Utils_________________________________63529b380f836040518263ffffffff1660e01b81526004018082815260200191505060206040518083038186803b158015620001aa57600080fd5b505af4158015620001bf573d6000803e3d6000fd5b505050506040513d6020811015620001d657600080fd5b8101908080519060200190929190505050620001f76200024960201b60201c565b0160028190555080600360006101000a81548173ffffffffffffffffffffffffffffffffffffffff021916908373ffffffffffffffffffffffffffffffffffffffff1602179055505050505062000300565b600042905090565b828054600181600116156101000203166002900490600052602060002090601f016020900481019282601f106200029457805160ff1916838001178555620002c5565b82800160010185558215620002c5579182015b82811115620002c4578251825591602001919060010190620002a7565b5b509050620002d49190620002d8565b5090565b620002fd91905b80821115620002f9576000816000905550600101620002df565b5090565b90565b610b9b80620003106000396000f3fe6080604052600436106100a75760003560e01c8063796b23bb11610064578063796b23bb1461025f578063934152501461028a578063953b8fb8146102b9578063d7bb99ba146102e4578063e29eb836146102ee578063e522538114610319576100a7565b806306fdde03146100ac578063083dca111461013c5780630c3f6acf1461015357806338af3eed1461018c5780633ccfd60b146101e357806355a3b2c1146101fa575b600080fd5b3480156100b857600080fd5b506100c1610330565b6040518080602001828103825283818151815260200191508051906020019080838360005b838110156101015780820151818401526020810190506100e6565b50505050905090810190601f16801561012e5780820380516001836020036101000a031916815260200191505b509250505060405180910390f35b34801561014857600080fd5b506101516103ce565b005b34801561015f57600080fd5b506101686105b8565b6040518082600381111561017857fe5b60ff16815260200191505060405180910390f35b34801561019857600080fd5b506101a16105cb565b604051808273ffffffffffffffffffffffffffffffffffffffff1673ffffffffffffffffffffffffffffffffffffffff16815260200191505060405180910390f35b3480156101ef57600080fd5b506101f86105f1565b005b34801561020657600080fd5b506102496004803603602081101561021d57600080fd5b81019080803573ffffffffffffffffffffffffffffffffffffffff169060200190929190505050610816565b6040518082815260200191505060405180910390f35b34801561026b57600080fd5b5061027461082e565b6040518082815260200191505060405180910390f35b34801561029657600080fd5b5061029f610834565b604051808215151515815260200191505060405180910390f35b3480156102c557600080fd5b506102ce610847565b6040518082815260200191505060405180910390f35b6102ec61084d565b005b3480156102fa57600080fd5b506103036109ee565b6040518082815260200191505060405180910390f35b34801561032557600080fd5b5061032e6109f4565b005b60008054600181600116156101000203166002900480601f0160208091040260200160405190810160405280929190818152602001828054600181600116156101000203166002900480156103c65780601f1061039b576101008083540402835291602001916103c6565b820191906000526020600020905b8154815290600101906020018083116103a957829003601f168201915b505050505081565b60008060038111156103dc57fe5b600360149054906101000a900460ff1660038111156103f757fe5b1461046a576040517f08c379a000000000000000000000000000000000000000000000000000000000815260040180806020018281038252600e8152602001807f496e76616c69642073746174652e00000000000000000000000000000000000081525060200191505060405180910390fd5b600254610475610b3e565b116104cb576040517f08c379a0000000000000000000000000000000000000000000000000000000008152600401808060200182810382526029815260200180610b476029913960400191505060405180910390fd5b600560009054906101000a900460ff16610508576001600360146101000a81548160ff021916908360038111156104fe57fe5b021790555061052d565b6002600360146101000a81548160ff0219169083600381111561052757fe5b02179055505b7f6fa7e87ebbd87ed4f1c40bba63144f68fd2bb022fb748ab3b61b5411c39bd47430600654600560009054906101000a900460ff16604051808473ffffffffffffffffffffffffffffffffffffffff1673ffffffffffffffffffffffffffffffffffffffff16815260200183815260200182151515158152602001935050505060405180910390a150565b600360149054906101000a900460ff1681565b600360009054906101000a900473ffffffffffffffffffffffffffffffffffffffff1681565b60018060038111156105ff57fe5b600360149054906101000a900460ff16600381111561061a57fe5b1461068d576040517f08c379a000000000000000000000000000000000000000000000000000000000815260040180806020018281038252600e8152602001807f496e76616c69642073746174652e00000000000000000000000000000000000081525060200191505060405180910390fd5b6000600460003373ffffffffffffffffffffffffffffffffffffffff1673ffffffffffffffffffffffffffffffffffffffff1681526020019081526020016000205411610742576040517f08c379a00000000000000000000000000000000000000000000000000000000081526004018080602001828103825260178152602001807f4e6f7468696e672077617320636f6e747269627574656400000000000000000081525060200191505060405180910390fd5b6000600460003373ffffffffffffffffffffffffffffffffffffffff1673ffffffffffffffffffffffffffffffffffffffff1681526020019081526020016000205490503373ffffffffffffffffffffffffffffffffffffffff166108fc829081150290604051600060405180830381858888f193505050501580156107cc573d6000803e3d6000fd5b506000600460003373ffffffffffffffffffffffffffffffffffffffff1673ffffffffffffffffffffffffffffffffffffffff168152602001908152602001600020819055505050565b60046020528060005260406000206000915090505481565b60025481565b600560009054906101000a900460ff1681565b60015481565b600080600381111561085b57fe5b600360149054906101000a900460ff16600381111561087657fe5b146108e9576040517f08c379a000000000000000000000000000000000000000000000000000000000815260040180806020018281038252600e8152602001807f496e76616c69642073746174652e00000000000000000000000000000000000081525060200191505060405180910390fd5b6002546108f4610b3e565b10610967576040517f08c379a00000000000000000000000000000000000000000000000000000000081526004018080602001828103825260148152602001807f43616d706169676e2068617320636c6f7365642e00000000000000000000000081525060200191505060405180910390fd5b34600460003373ffffffffffffffffffffffffffffffffffffffff1673ffffffffffffffffffffffffffffffffffffffff1681526020019081526020016000206000828254019250508190555034600660008282540192505081905550600154600654106109eb576001600560006101000a81548160ff0219169083151502179055505b50565b60065481565b6002806003811115610a0257fe5b600360149054906101000a900460ff166003811115610a1d57fe5b14610a90576040517f08c379a000000000000000000000000000000000000000000000000000000000815260040180806020018281038252600e8152602001807f496e76616c69642073746174652e00000000000000000000000000000000000081525060200191505060405180910390fd5b600360009054906101000a900473ffffffffffffffffffffffffffffffffffffffff1673ffffffffffffffffffffffffffffffffffffffff166108fc6006549081150290604051600060405180830381858888f1935050505015610b165760038060146101000a81548160ff02191690836003811115610b0c57fe5b0217905550610b3b565b6001600360146101000a81548160ff02191690836003811115610b3557fe5b02179055505b50565b60004290509056fe43616e6e6f742066696e6973682063616d706169676e206265666f7265206120646561646c696e652ea165627a7a72305820003e9eb27a26787118a4faeb49419ebf63b9be6309d9de5dbd3e1dc1b2c73d4e0029",
  "source": "pragma solidity >=0.4.21 <0.6.0;\n\nimport \"./Utils.sol\";\n\ncontract CrowdFunding {\n  enum State { Ongoing, Failed, Succeeded, PaidOut }\n\n  string public name;\n  uint public targetAmount;\n  uint public fundingDeadline;\n  address payable public beneficiary;\n  State public currentState;\n  mapping(address => uint) public amounts;\n  bool public succeeded;\n  uint public totalCollected;\n\n  event CampaignFinished(\n    address addr,\n    uint totalCollected,\n    bool succeeded\n  );\n\n  modifier inState(State expectedState) {\n    require(currentState == expectedState, 'Invalid state.');\n    _;\n  }\n  modifier isActive {\n    require(currentTime() < fundingDeadline, 'Campaign has closed.');\n    _;\n  }\n  constructor(\n    string memory contractName,\n    uint targetAmountEth,\n    uint durationInMins,\n    address payable beneficiaryAddress\n  ) public {\n    name = contractName;\n    targetAmount = Utils.etherToWei(targetAmountEth);\n    fundingDeadline = currentTime() + Utils.minutesToSeconds(durationInMins);\n    beneficiary = beneficiaryAddress;\n  }\n\n  function contribute() public payable inState(State.Ongoing) isActive {\n    amounts[msg.sender] += msg.value;\n    totalCollected += msg.value;\n    if(totalCollected >= targetAmount) {\n      succeeded = true;\n    }\n  }\n\n  function finishCrowdFunding() public inState(State.Ongoing) {\n    require(currentTime() > fundingDeadline, 'Cannot finish campaign before a deadline.');\n    if (!succeeded) {\n      currentState = State.Failed;\n    } else {\n      currentState = State.Succeeded;\n    }\n    emit CampaignFinished(address(this), totalCollected, succeeded);\n  }\n\n  function collect() public inState(State.Succeeded) {\n    if (beneficiary.send(totalCollected)) {\n      currentState = State.PaidOut;\n    } else {\n      currentState = State.Failed;\n    }\n  }\n\n  function withdraw() public inState(State.Failed) {\n    require(amounts[msg.sender] > 0, \"Nothing was contributed\");\n    uint contributed = amounts[msg.sender];\n    msg.sender.transfer(contributed);\n    amounts[msg.sender] = 0;\n  }\n\n  function currentTime() internal view returns(uint) {\n    return block.timestamp;\n  }\n}",
  "sourcePath": "/Users/rahul/sirius/rahul/projects/blockchain/crowd-funding/contracts/CrowdFunding.sol",
  "compiler": {
    "name": "solc",
    "version": "0.5.8+commit.23d335f2.Emscripten.clang"
  },
  "schemaVersion": "3.0.9",
  "updatedAt": "2019-05-21T09:45:59.642Z",
  "devdoc": {
    "methods": {}
  },
  "userdoc": {
    "methods": {}
  }
}